:020000040800F2
:1000000070070020F1090008D9020008DB0200088F
:10001000DF020008E3020008E70200080000000019
:10002000000000000000000000000000EB020008DB
:10003000ED02000800000000EF020008F1020008D5
:100040000B0A00080B0A00080B0A00080B0A00083C
:100050000B0A00080B0A00080B0A00080B0A00082C
:100060000B0A00080B0A00080B0A00080B0A00081C
:100070000B0A00080B0A00080B0A00080B0A00080C
:100080000B0A00080B0A00080B0A00080B0A0008FC
:100090000B0700080B0A00080B0A00080B0A0008EF
:1000A0000B0A00080B0A00080B0A00080B0A0008DC
:1000B0000B0A00080B0A00080B0A00080B0A0008CC
:1000C0000B0A00080B0A00080B0A00080B0A0008BC
:1000D0000B0A0008650900080B0A00080B0A000853
:1000E0000B0A00080B0A00080B0A00080B0A00089C
:1000F0000B0A00080B0A00080B0A00080B0A00088C
:100100000B0A00080B0A00080B0A00080B0A00087B
:100110000B0A00080B0A00080B0A00080B0A00086B
:100120000B0A00080B0A00080B0A00080B0A00085B
:1001300000F002F800F03CF80AA090E8000C8244BD
:100140008344AAF10107DA4501D100F031F8AFF29A
:10015000090EBAE80F0013F0010F18BFFB1A43F0A5
:1001600001031847E81F000008200000103A24BFD0
:1001700078C878C1FAD8520724BF30C830C144BF0C
:1001800004680C607047000000230024002500264E
:10019000103A28BF78C1FBD8520728BF30C148BFEA
:1001A0000B607047002070471FB51FBD10B510BD14
:1001B00001F09CFF1146FFF7F7FF00F020F801F077
:1001C000BAFF03B4FFF7F2FF03BC00F071FB0000BD
:1001D00008B500F003FB4FF4A06000F029FC4FF4D9
:1001E000E13000F073FB00F075F900F099F90020A0
:1001F000042308220721009000F0FEF908BD002525
:100200000024FFF7E5FF5CE02E48008800F4004082
:1002100000284AD02B490988C1F30D00C11700EB13
:100220005171C1F3C701284A117226480088C0F3F2
:100230000D011046007AB1EBC00F04DD1046007AC4
:10024000401C11460872002526E0002412E01F48D9
:100250001F490978405C30B11C481D490978405C51
:100260003038194908551A480078401C1849087058
:10027000601CC4B2082CEADB0821134800F051FAD4
:100280001148002101604160007A022802DD0A2045
:1002900000F0E1FA681CC5B20B48007AA842D4DC31
:1002A00000200B490870074908804FF4FA7000F0ED
:1002B000D2FA0848006808B9012000E0002005498A
:1002C0000860A1E7240000203C0000204500002039
:1002D0000000002094812142704700BFFEE700BF6C
:1002E000FEE700BFFEE700BFFEE7704770477047BC
:1002F000704700000CB50020019000906C48006829
:1003000040F480306A49086000BF6948006800F422
:10031000003000900198401C0190009818B9019895
:10032000B0F5A06FF1D16248006800F4003010B160
:100330000120009001E0002000900098012843D1A6
:100340005C48006840F010005A49086008460068A0
:1003500020F0030008600846006840F002000860D2
:10036000534840685249486008464068486008461B
:10037000406840F4806048600846406820F47C1083
:1003800048600846406840F4E81048600846006845
:1003900040F08070086000BF4548006800F00070C1
:1003A0000028F9D04248406820F0030040494860E6
:1003B0000846406840F00200486000BF3C48406882
:1003C00000F00C000828F9D10CBD10B5FFF792FF22
:1003D00010BD10B53648006840F00100344908608F
:1003E000084640683449084031494860084600687A
:1003F000324908402E4908600846006820F48020F1
:1004000008600846406820F4FE0048604FF41F0072
:100410008860FFF7DAFF4FF000602949086010BDDF
:1004200010B5002100200022214B5B6803F00C0175
:1004300021B1042906D0082928D107E0214B224CFC
:10044000236027E01F4B204C236023E0184B5B68A0
:1004500003F47010164B5B6803F48032022303EB45
:10046000904022B9194B4343174C23600DE0104BC9
:100470005B6803F4003323B1144B4343124C2360F5
:1004800003E0104B4343104C236003E00D4B0E4C34
:10049000236000BF00BF064B5B68C3F303130C4C23
:1004A000E15C094B1B68CB40074C236010BD00008A
:1004B00000100240002002400000FFF8FFFFF6FE9F
:1004C00008ED00E000127A000400002000093D0061
:1004D0000800002008B50121482000F033FE20204C
:1004E000ADF8000010208DF8030003208DF8020005
:1004F0006946094800F06AFB2021074800F013FC18
:100500002020ADF800006946044800F05FFB202180
:10051000024800F008FC08BD000C01400018014032
:1005200008B50121442000F00DFE1820ADF80000B0
:1005300048208DF8030069462C4800F047FB012055
:10054000ADF8000028208DF803006946284800F027
:100550003DFB08BD10B5044614B1012025490870C3
:100560002448007858B31021204800F0C2FB50B155
:1005700008211E4800F0BDFB28B101211C4800F0F5
:10058000B8FB01281BD10A2000F065F900201949A9
:1005900008701021154800F0ACFB08B9012010BD0F
:1005A0000821124800F0A5FB08B90220F7E7012155
:1005B0000F4800F09EFB012815D10320EFE7102122
:1005C0000A4800F096FB01280DD10821074800F0E9
:1005D00090FB012807D10121054800F08AFB10B9E2
:1005E0000120044908700020D9E7000000180140EC
:1005F00000080140180000202DE9F0418AB00446AF
:100600000D4616461F46DDF840800121042000F00B
:1006100099FD0121480600F0A2FD4FF48050ADF88D
:10062000240003208DF8260018208DF8270009A942
:10063000644800F0CBFA4FF40060ADF82400482085
:100640008DF8270009A95F4800F0C0FA00208DF856
:100650001E008DF81F008DF8200001208DF821006C
:1006600000208DF822008DF823008DF81A808DF877
:100670001B408DF81C608DF81D50ADF8187006A950
:10068000514800F0DCFD00208DF812008DF81300B9
:1006900001208DF814000020ADF80800ADF80A0024
:1006A000ADF80C00ADF80E00ADF8100001208DF88B
:1006B000150002A800F04DFE01220221424801F07F
:1006C00047F914208DF8040001208DF80500002062
:1006D0008DF8060001208DF8070001A800F0ADF9A3
:1006E00000200AB0BDE8F08170B5054637A001F0E2
:1006F0008BFC002406E005F10B00015D364801F09B
:10070000B9FB641C082CF6DB70BD00B585B06A46E9
:1007100000212D4801F001F86846FFF7E5FF05B01C
:1007200000BDF0B585B007460D46002412200090AC
:10073000019000208DF808008DF809008DF80A500E
:1007400000BF05E0395D0DF10B000155601C84B25E
:10075000AC42F7DB69461C4800F0EAFE064600247E
:1007600001E0601C84B23146174800F079FF18B9E7
:1007700040F6FF708442F4DB40F6FF70844202DBF7
:10078000012005B0F0BD0020FBE730B585B005467F
:1007900000210D4801F044F810B9002005B030BD2B
:1007A0006A460021084800F0B8FF002404E00DF17B
:1007B0000B00005D2855641C082CF8D39DF80A0036
:1007C000ECE7000000080140006400402063616E17
:1007D0005F323332200000000038014010B56FF066
:1007E000040000F074F92E4800682E49B0FBF1F0C7
:1007F0002D4908700846007800EB4001C1EBC0109D
:100800004FF6FF7101EAC0002849088010BD01467B
:10081000254A12784A434FF0E0235A6100229A6138
:100820001A46126942F001021A6100BF4FF0E0223D
:10083000106900F001021AB100F48032002AF5D0EC
:100840004FF0E022126922F001024FF0E0231A611A
:1008500000229A6170470146144A12884A434FF0B9
:10086000E0235A6100229A611A46126942F001029D
:100870001A6100BF4FF0E022106900F001021AB1C6
:1008800000F48032002AF5D04FF0E022126922F005
:1008900001024FF0E0231A6100229A6170470000C4
:1008A0000400002000127A001A0000201C00002022
:1008B00000BF704700BF4A4A128802F04002002A77
:1008C000F9D0C2B2464B1B1D1A80704710B586B0D6
:1008D0000446012144F2040000F034FC4FF400709F
:1008E000ADF8140003208DF8160018208DF81700BD
:1008F00005A93C4800F06AF94FF48060ADF8140097
:1009000004208DF8170005A9364800F05FF925206E
:100910008DF8000003208DF801008DF80200012001
:100920008DF80300684600F088F801940020ADF8C7
:100930000800ADF80A00ADF80C00ADF810000C206E
:10094000ADF80E0001A9264801F09BF9012240F202
:100950002551234801F02DFA0121214801F01DFA0B
:1009600006B010BD10B540F225511D4801F006FB40
:1009700010B31B4801F082FAC4B21B48008800F48F
:100980000040C8B91848008800F4804060B10A2CC3
:1009900003D000201449088020E01348008840F468
:1009A00000401149088019E00D2C06D10E4800883E
:1009B00040F480400C49088010E00B480088C0F3E8
:1009C0000D000A490C5408480088401C064908805C
:1009D00008460088C72801DD0020088010BD0000FF
:1009E000003801400008014024000020450000209C
:1009F0000948804709480047FEE7FEE7FEE7FEE7B3
:100A0000FEE7FEE7FEE7FEE7FEE7FEE704480549EE
:100A1000054A064B70470000D30300083101000867
:100A20007001002070070020700300207003002078
:100A300031490143314A1160704770B500210023EC
:100A40000F22C47804B32D4C246804F4E064C4F588
:100A5000E064210AC1F10403CA40447804FA03F1B6
:100A60008478144021430901254C0678A155047867
:100A700004F01F050124AC4005786D11AD0005F1AF
:100A8000E025C5F8004109E0047804F01F050124C1
:100A9000AC401C4D0678761145F8264070BD1A4AC8
:100AA0000A400243154B1B1F1A60704739B1134AA5
:100AB000121D12680243114B1B1D1A6006E00F4AFB
:100AC000121D126882430D4B1B1D1A6070470428CB
:100AD00008D14FF0E021096941F004014FF0E02214
:100AE000116107E04FF0E021096921F004014FF0A6
:100AF000E0221161704700000000FA050CED00E0F3
:100B000000E400E080E100E080FFFF1F10B5044634
:100B1000CC48844208D10121042000F02DFB0021A3
:100B2000042000F029FB46E0C748844208D1012197
:100B3000082000F021FB0021082000F01DFB3AE016
:100B4000C248844208D10121102000F015FB002189
:100B5000102000F011FB2EE0BD48844208D1012195
:100B6000202000F009FB0021202000F005FB22E0FE
:100B7000B848844208D10121402000F0FDFA00214C
:100B8000402000F0F9FA16E0B348844208D1012170
:100B9000802000F0F1FA0021802000F0EDFA0AE058
:100BA000AE48844207D10121801500F0E5FA00210A
:100BB000A01500F0E1FA10BD10B50121084600F0C3
:100BC000DBFA0021012000F0D7FA10BD2DE9F04139
:100BD000024600250026002000230024002791F86B
:100BE00003C00CF00F0591F803C00CF0100CBCF121
:100BF000000F03D091F802C04CEA050591F800C03F
:100C0000BCF1000F31D0146800202BE04FF0010C34
:100C10000CFA00F3B1F800C00CEA03069E4220D1A2
:100C200083004FF00F0C0CFA03F7BC4305FA03FCEA
:100C30004CEA040491F803C0BCF1280F06D14FF030
:100C4000010C0CFA00FCC2F814C00AE091F803C0D1
:100C5000BCF1480F05D14FF0010C0CFA00FCC2F8B2
:100C600010C0401C0828D1D31460B1F800C0BCF1FA
:100C7000FF0F34DD546800202EE000F1080C4FF027
:100C8000010808FA0CF3B1F800C00CEA03069E4212
:100C900021D183004FF00F0C0CFA03F7BC4305FA87
:100CA00003FC4CEA040491F803C0BCF1280F05D101
:100CB00000F1080C08FA0CF8C2F8148091F803C08F
:100CC000BCF1480F07D100F1080C4FF0010808FAF9
:100CD0000CF8C2F81080401C0828CED35460BDE840
:100CE000F0814FF6FF710180022181700421C170F3
:100CF00070470246002093680B400BB1012000E0D2
:100D0000002070470146886880B270470246002084
:100D1000D3680B400BB1012000E000207047014672
:100D2000C86880B2704701617047416170470AB17D
:100D3000016100E041617047C16070474FF480324B
:100D40000A438261816182618269826970470246D9
:100D50000020434B18684FF68073184040EA021099
:100D600008433F4B186070473E49C8617047F0B573
:100D70000A46002300240021002500F00046B6F1B9
:100D8000004F02D1364EF16901E0354E7168C0F373
:100D9000034583B200F44016B6F5401F08D121F098
:100DA00070612F4E766826F070662D4F7E6012E0DF
:100DB00000F48016B6F5801F06D1032606FA05F466
:100DC000A14341F0706106E0460D360103FA06F6D4
:100DD000B14341F0706122B1460D360103FA06F6C7
:100DE000314300F00046B6F1004F02D11C4EF161D4
:100DF00001E01B4E7160F0BD30B500228B071C0F67
:100E00000F2303FA04F2164B08338C1053F82430E6
:100E10009343134C08348D1044F8253023468C102E
:100E200053F824308C07240F00FA04F423430C4CAD
:100E300008348D1044F8253030BD0A49DC31086093
:100E40007047000000080140000C01400010014004
:100E50000014014000180140001C01400020014026
:100E60000000014000002042DF48006840F001001F
:100E7000DD49086008464068DC490840DA494860B6
:100E800008460068DA490840D74908600846006803
:100E900020F4802008600846406820F4FE00486086
:100EA0004FF41F0088607047CF49096821F48031F2
:100EB000CD4A11601146096821F480211160B0F516
:100EC000803F03D0B0F5802F0ED106E0C6490968F7
:100ED00041F48031C44A116007E0C349096841F414
:100EE000A021C14A116000E000BF00BF704710B5EB
:100EF00001460022002300204A11012A02D1BA4CE7
:100F0000236806E0022A02D1B74C236A01E0B64CFE
:100F1000636A01F01F02012494401C400CB10120BF
:100F200000E0002010BD38B500200090002400250E
:100F300000BF3120FFF7DBFF05460098401C009002
:100F40000098B0F5A06F01D0002DF2D03120FFF74E
:100F5000CEFF08B1012400E00024204638BD014640
:100F60000020A14A106820F0F80040EAC10010609B
:100F70007047A04908607047024600209A4B5868A5
:100F800020F47C1042EA01031843974B58607047E5
:100F900098490866704701460020934A506820F03F
:100FA00003000843506070478F48406800F00C0011
:100FB0007047014600208C4A506820F0F00008433A
:100FC0005060704701460020874A506820F4E06076
:100FD00008435060704701460020834A506820F45F
:100FE000605040EAC1005060704729B17E4A527A91
:100FF00002437D4B5A7204E07B4A527A82437A4B19
:101000005A7270477B49D83108607047014600200A
:10101000754A506820F440400843506070470021F2
:10102000714A20321170704A82F82010012802D0D3
:1010300004280AD104E001216B4A2032117005E036
:101040000521694A2032117000E000BF00BF7047DF
:101050006949086070476449096A0143624A11623C
:101060007047654944390860704730B50021002257
:10107000002400235C4D6D6805F00C0121B10429AA
:1010800005D0082923D105E05C4D056022E05B4DC9
:1010900005601FE0544D6D6805F47012524D6D6887
:1010A00005F48034022505EB92421CB9544D55439A
:1010B00005600BE04C4D6D6805F400351DB1504DD9
:1010C0005543056002E04D4D5543056002E04B4D30
:1010D000056000BF00BF444D6D6805F0F0010909CF
:1010E000484D6B5C0568DD4045603F4D6D6805F41B
:1010F000E061090A434D6B5C4568DD4085603A4D0F
:101100006D6805F46051C90A3E4D6B5C4568DD4071
:10111000C560354D6D6805F44041890B3A4D6B5CF7
:10112000C568B5FBF3F5056130BD29B12E4A52699A
:1011300002432D4B5A6104E02B4A526982432A4BE9
:101140005A61704729B1284A92690243264B9A6135
:1011500004E0254A92698243234B9A61704729B182
:10116000214AD2690243204BDA6104E01E4AD26967
:1011700082431D4BDA61704729B11B4AD268024392
:10118000194BDA6004E0184AD2688243164BDA60E1
:10119000704729B1144A12690243134B1A6104E0E3
:1011A000114A12698243104B1A6170471249403943
:1011B000086070470F49C86470470B49C871704791
:1011C0000948406A40F0807007494862704701460C
:1011D0000020054A92680A400AB1012000E0002080
:1011E0007047014988727047001002400000FFF804
:1011F000FFFFF6FE000042428004424200127A00E5
:1012000000093D00260000203600002010B50446ED
:10121000FE48844209D101214806FFF7BAFF0021A8
:101220004FF00070FFF7B5FF08E001218806FFF7D7
:10123000B0FF00214FF08060FFF7ABFF10BD30B56D
:10124000024600200023146824F00204146014688D
:1012500044F00104146000E05B1C546804F00104D5
:101260001CB94FF6FF74A342F6D1546804F0010490
:101270000CB900206CE08C79012C04D1146844F086
:101280008004146003E0146824F080041460CC79B6
:10129000012C04D1146844F04004146003E0146885
:1012A00024F0400414600C7A012C04D1146844F03A
:1012B0002004146003E0146824F0200414604C7AC5
:1012C000012C04D1146844F01004146003E0146885
:1012D00024F0100414608C7A012C04D1146844F0BA
:1012E0000804146003E0146824F008041460CC7A45
:1012F000012C04D1146844F00404146003E0146861
:1013000024F0040414608C78A407CD7844EA0564C2
:101310000D7944EA05444D7944EA05540D886D1E63
:101320002C43D461146824F001041460002300E00D
:101330005B1C546804F001041CB14FF6FF74A34217
:10134000F6D1546804F001040CB1002000E0012043
:1013500030BD10B50021837A012202FA03F1AC4AB4
:10136000126842F00102AA4B1A60A94A1C321268A4
:101370008A43A74B1C331A60027BCAB9A44A0C32B9
:1013800012688A43A24B0C331A604288C38842EA2F
:1013900003439F4A4032847A42F83430028883887B
:1013A00042EA03439A4A4032847A02EBC402536011
:1013B000027B012A19D1964A0C3212680A43944BD7
:1013C0000C331A604288038842EA0343904A403251
:1013D000847A42F83430C288838842EA03438C4AD4
:1013E0004032847A02EBC4025360C27A3AB9884A26
:1013F000121D12688A43864B1B1D1A6006E0844A40
:10140000121D12680A43824B1B1D1A60028932B9F1
:101410007F4A143212688A437D4B14331A60028962
:10142000012A06D17A4A143212680A43784B1433DF
:101430001A60427B012A06D1754A1C3212680A439F
:10144000734B1C331A60724A126822F00102704B0F
:101450001A6010BD00218171C171017241728172E7
:10146000C1728170C170032101710221417101219A
:10147000018070476649096841F00101644A1160C2
:101480001146096843F60E729143614A1160114694
:10149000096841EA002111601146096821F0010143
:1014A0001160704721B1026842F48032026003E0AB
:1014B000026822F4803202607047E1B1026842F0B3
:1014C000800202604FF4C272125842F480734FF4EB
:1014D000C27213504FF4CA72125842F480734FF420
:1014E000CA7213504FF4D272125842F480734FF400
:1014F000D27213501BE0026822F0800202604FF4A7
:10150000C272125822F480734FF4C27213504FF417
:10151000CA72125822F480734FF4CA7213504FF4F7
:10152000D272125822F480734FF4D2721350704763
:1015300010B502460020936803F08063B3F1806F1A
:1015400000D110E0936803F00063B3F1006F01D1A4
:10155000012008E0936803F08053B3F1805F01D16C
:10156000022000E00420042879D002F5C07303EBC8
:1015700000131B6803F0010402F5C07303EB0013B2
:101580001C600B7A7BB94B7A0C8843EA445302F512
:10159000C07404EB00142468234302F5C07404EB08
:1015A0000014236010E00B7A4C6843EAC4034C7AC1
:1015B000234302F5C07404EB00142468234302F5AE
:1015C000C07404EB001423608B7A03F00F038B725A
:1015D00002F5C07303EB00135B6823F00F0402F500
:1015E000C07303EB00135C6002F5C07303EB0013E0
:1015F0005B688C7A234302F5C07404EB00146360CB
:101600008B7B1C064B7B44EA034403E000640040F0
:10161000006600400B7B44EA0323CC7A234302F5A7
:10162000C07404EB0014A3608B7C1C064B7C44EA62
:1016300003440B7C44EA0323CC7B234302F5C074B0
:1016400004EB0014E36002F5C07303EB00131B68A6
:1016500043F0010402F5C07303EB00131C6010BDDE
:1016600010B50246002321B1012907D002290FD16C
:1016700009E09068F94C00EA04030BE09068F84C2C
:1016800000EA040306E09068F64C00EA040301E077
:10169000002300BF00BFF44C181BA34216D007DC88
:1016A00083B16FF08060184470B1022818D111E046
:1016B000B0F5007F10D0ED4C204448B1B0F5003FAC
:1016C0000ED10BE002230DE000230BE0002309E024
:1016D000002307E0012305E0012303E0012301E0EB
:1016E000002300BF00BFD8B210BD21B1012907D02F
:1016F00002290FD109E0826842F0800282600AE08C
:10170000826842F40042826005E0826842F400028E
:10171000826000E000BF00BF704710B500F5D873CD
:1017200003EB01131B6803F004031372137A53B91C
:1017300000F5D87303EB01131B6840F2FF7404EA51
:101740005353136009E000F5D87303EB01131B68D2
:101750006FF0604404EAD303536000F5D87303EBE1
:1017600001131B6803F00203537200F5D87303EBF7
:1017700001135B6803F00F03937200F5D87303EB5A
:1017800001135B681B0AD37400F5D87303EB0113D4
:101790009B68D37200F5D87303EB01139B681C0A96
:1017A000147300F5D87303EB01139B681C0C54737E
:1017B00000F5D87303EB01139B681B0E937300F5C0
:1017C000D87303EB0113DB68D37300F5D87303EB15
:1017D0000113DB681C0A147400F5D87303EB0113C2
:1017E000DB681C0C547400F5D87303EB0113DB6841
:1017F0001B0E937421B9C36843F02003C36003E058
:10180000036943F02003036110BD21B9C26842F0AF
:101810002002C26003E0026942F0200202617047C8
:101820000246002019B9D36803F0030006E001293D
:1018300003D1136903F0030000E00020704710B5E6
:1018400002460B4600204FF6FF71BBB9146824F026
:10185000020444F00104146000E0491E546804F0DE
:101860000304012C01D00029F7D1546804F00304CB
:10187000012C01D0002032E0012030E0012B13D1F7
:10188000146824F00304146000E0491E546804F056
:1018900003040CB10029F8D1546804F003040CB11E
:1018A00000201CE001201AE0022B17D1146824F05C
:1018B000010444F00204146000E0491E546804F07E
:1018C0000304022C01D00029F7D1546804F003046A
:1018D000022C01D0002002E0012000E0002010BD19
:1018E000014600200A6822F0010242F002020A606A
:1018F0004A6802F00302022A00D101207047014623
:101900004FF6FF7200200B6823F002030B6000E02B
:10191000521E4B6803F00203022B01D1002AF7D1BB
:101920004B6803F00203022B00D0012070470146F0
:1019300000208A6902F070007047014600208A6921
:10194000100E7047014600208A69C2F307407047B5
:101950001AB143690B43436102E043698B4343611E
:10196000704710B50246002001F4700343B193693B
:10197000C1F3130423400BB101202DE000202BE024
:1019800001F0807343B15368C1F3130423400BB1DA
:10199000012021E000201FE001F0006343B19368C3
:1019A000C1F3130423400BB1012015E0002013E024
:1019B00001F0007343B1D368C1F3130423400BB1AA
:1019C000012009E0002007E01369C1F3130423405C
:1019D0000BB1012000E0002010BD0022244B9942F1
:1019E00002D10023836111E0C1F3130201F00073FF
:1019F0000BB1C2600AE001F080630BB1026105E047
:101A000001F000630BB1826000E042607047024663
:101A1000002002EA01030BB1012000E00020704722
:101A200070B504460D46002660692840002872D033
:101A3000B5F5807F69D01DDC082D42D006DC012D74
:101A40002DD0022D31D0042D7FD134E0102D3ED089
:101A5000202D42D0402D78D145E000000300000445
:101A60000003000800000310000100080001FFF758
:101A70007000F030B5F5004F61D009DCB5F5007F9E
:101A80004AD0B5F5806F4DD0B5F5006F5DD150E00F
:101A9000B5F5803F2DD0B5F5003F56D12FE0A068B9
:101AA0005549FFF7B4FF064651E0E0680321FFF710
:101AB000AEFF06464BE0E0680821FFF7A8FF0646A8
:101AC00045E0E0681021FFF7A2FF06463FE02069ED
:101AD0000321FFF79CFF064639E020690821FFF744
:101AE00096FF064633E020691021FFF790FF064677
:101AF0002DE060680821FFF78AFF064627E060684E
:101B00001021FFF784FF064621E0A0690121FFF7BD
:101B10007EFF06461BE01BE0A0690221FFF777FF6E
:101B2000064614E0A0690421FFF771FF06460EE0A7
:101B30000BE0A0697021FFF76AFF064607E06068C6
:101B40000421FFF764FF064601E0002600BF00E025
:101B50000026304670BDB1F5007F3AD00FDC202959
:101B600028D006DC01291CD004291DD0082940D129
:101B70001DE0402921D0B1F5807F3AD126E0B1F5B2
:101B8000004F31D006DCB1F5806F25D0B1F5006F84
:101B90002FD124E0B1F5803F12D0B1F5003F28D11C
:101BA00011E0154A826025E00822C26022E010227E
:101BB000C2601FE0082202611CE01022026119E0ED
:101BC0000822426016E01022426013E004224260C4
:101BD00010E0042242600DE0042242600AE000228C
:101BE00082610422426005E0002282610422426098
:101BF00000E000BF00BF70470101010010B50446BE
:101C0000FB48844209D101218803FFF7B5FA00217E
:101C10004FF48040FFF7B0FA32E0F648844209D131
:101C200001214804FFF7B5FA00214FF40030FFF717
:101C3000B0FA25E0F048844209D101218804FFF779
:101C4000A8FA00214FF48020FFF7A3FA18E0EB4830
:101C5000844209D10121C804FFF79BFA00214FF407
:101C60000020FFF796FA0BE0E548844208D10121F5
:101C70000805FFF78EFA00214FF48010FFF789FA6C
:101C800010BD2DE9F04786B005460E460024A24659
:101C900000BFA1460027B08900B100BF2F462C8AA3
:101CA0004CF6FF700440F08804432C82AC894EF659
:101CB000F3100440B0883189084371890843044314
:101CC000AC81AC8A4FF6FF400440B0890443AC823B
:101CD00001A8FFF7CAF9C648874202D1DDF810A073
:101CE00001E0DDF80CA0A88900F4004040B10AEB47
:101CF000CA0000EB0A1031684900B0FBF1F807E0B8
:101D00000AEBCA0000EB0A1031688900B0FBF1F859
:101D10006420B8FBF0F004012009642101FB108964
:101D2000A88900F4004040B1322000EBC900B0FBAC
:101D3000F1F000F00700044308E0322000EB091046
:101D40006421B0FBF1F000F00F0004432C8106B0D9
:101D5000BDE8F0874FF41651016000218180C180F9
:101D600001810C21418100218181704710B502461B
:101D70000020108A4FF2FF0318400B884C88234341
:101D80008C882343CC8823431843108210BD002144
:101D9000018041808180C180704721B1828942F4F5
:101DA0000052828104E082894DF6FF731A408281DD
:101DB0007047F0B50346002400260025002040F6B9
:101DC0006A17B94200D100BF1846C1F3421401F0AE
:101DD0001F06012707FA06F5012C01D10C3004E09B
:101DE000022C01D1103000E014301AB107682F43E3
:101DF000076002E00768AF430760F0BD1AB1838A4D
:101E00000B43838202E0838A8B4383827047028A7A
:101E10004FF6F0731A400282028A0A430282704728
:101E200082894FF2FF731A40828182890A4382813C
:101E3000704721B1828942F00202828104E08289E6
:101E40004FF6FD731A4082817047028A4FF6DF73A6
:101E50001A400282028A0A430282704721B1028A32
:101E600042F48042028204E0028A4BF6FF731A4079
:101E700002827047C1F30802828070470146888859
:101E8000C0F308007047818941F0010181817047EA
:101E9000028BD2B20283028B42EA01220283704794
:101EA000028B02F47F420283028B0A430283704753
:101EB00021B1828A42F02002828204E0828A4FF6B7
:101EC000DF731A408282704721B1828A42F0100289
:101ED000828204E0828A4FF6EF731A408282704752
:101EE00021B1828A42F00802828204E0828A4FF69F
:101EF000F7731A408282704721B1828942F400420E
:101F0000828103E08289C2F30E028281704721B18F
:101F1000828A42F40062828204E0828A4FF2FF7376
:101F20001A4082827047828A4FF6FB731A4082827F
:101F3000828A0A438282704721B1828A42F0020279
:101F4000828204E0828A4FF6FD731A4082827047D3
:101F500002460020B1F5007F00D100BF13880B407E
:101F60000BB1012000E00020704701F40072B2F5CF
:101F7000007F00D100BFCA430280704770B502469F
:101F8000002400230025002040F66A16B14200D14B
:101F900000BFC1F3421501F01F03012606FA03F347
:101FA000012D02D19689334006E0022D02D1168A16
:101FB000334001E0968A33400C12012606FA04F4FD
:101FC0001688344013B10CB1012000E0002070BD30
:101FD00010B50022002340F66A14A14200D100BFD0
:101FE0000A1201249440A3B2DC43048010BD000017
:101FF000003801400044004000480040004C0040D0
:1020000000500040704700000FB4044910B503AA07
:10201000029800F03DF810BC5DF814FB2000002091
:102020002DE9F0410E460446002020622046E1687A
:10203000884730B3252805D0D4E901219047206A8C
:10204000401CF2E7E168204600278847050018D0C9
:10205000A5F14100192802D820354FF40067324617
:10206000294620462760FEF79DF840B1012804D09C
:10207000F61D26F007060836D8E7361DD6E72846AF
:10208000DAE7206ABDE8F081704770477047704713
:10209000074B70B50D467B4400F011F80446284606
:1020A00000F020F810B14FF0FF3070BD204670BD39
:1020B0001BE8FFFF01694A1C02610878704700B500
:1020C0008FB0CDE901310021059105497944CDE971
:1020D000031011466846FFF7A3FF0FB000BD0000D4
:1020E000E5FFFFFF007B00F080007047754600F0C1
:1020F00029F8AE4605006946534620F0070085469C
:1021000018B020B5FEF782FCBDE820404FF0000675
:102110004FF000074FF000084FF0000B21F00701CF
:10212000AC46ACE8C009ACE8C009ACE8C009ACE812
:10213000C0098D4670470446AFF300802046FEF785
:1021400040F8000000487047100100206C21000892
:10215000000000203C0000006C010008A8210008DD
:102160003C00002034070000880100080000000047
:1021700000A24A0400000000000000000102030465
:102180000607080901000000000000000000000030
:10219000000000000000010203040102030406071E
:0821A000080902040608000012
:0400000508000131BD
:00000001FF
